:100000008FC0A9C0A8C0A7C0A6C0A5C0A4C0A3C0D7
:10001000A2C0A1C0A0C09FC09EC09DC09CC09BC0EC
:100020009AC099C098C000407A10F35A00A0724E4E
:1000300018090010A5D4E80000E87648170000E48D
:100040000B54020000CA9A3B000000E1F5050000D5
:1000500080969800000040420F000000A08601003A
:100060000000102700000000E8030000000064000A
:10007000000000000A000000000001000000000075
:100080002C76D888DC674F0823DFC1DFAE59E1B199
:10009000B796E5E3E453C63AE651997696E8E6C2A8
:1000A0008426EB898C9B62ED407C6FFCEFBC9C9FAF
:1000B00040F2BAA56FA5F490055A2AF75C936B6CD1
:1000C000F9676DC11BFCE0E40D47FEF520E6B500C5
:1000D000D0ED902E0300943577050080841E080033
:1000E00000204E0A000000C80C333333330F986EE3
:1000F00012831141EF8D2114893BE65516CFFEE6A0
:10010000DB18D1844B381BF77C1D901DA4BBE42465
:10011000203284725E228100C9F124ECA1E53D27E2
:1001200011241FBECFE5D4E0DEBFCDBF10E0A0E6B6
:10013000B0E0E0E1FEE102C005900D92A437B10706
:10014000D9F721E0A4E7B0E001C01D92A23AB207BE
:10015000E1F741D55BCE54CFF89490BD89B988E1E1
:100160008AB986E880BD82E08BB9789408955D9B5A
:10017000FECF8CB908955F9BFECF8CB10895F7CF69
:100180001F93CF93DF93EC018DE0F1DF8AE0EFDF87
:1001900010E0812F90E0FE0101900020E9F73197F7
:1001A000EC1BFD0B8E179F0738F4FE01E80FF91FBB
:1001B0008081DDDF1F5FEDCF8DE0D9DF8AE0DF9149
:1001C000CF911F91D4CF11B810B8089594EA96BF7B
:1001D00006B607FEFDCF91B1987F983071F483B9D0
:1001E00084E886BF06B607FEFDCF81B1887F8831DF
:1001F00031F0803231F083E0089580E0089581E0AD
:10020000089582E0089594EA96BF06B607FEFDCFF2
:1002100091B1987F903171F483B984E886BF06B6B6
:1002200007FEFDCF81B1887F803431F0803231F01C
:1002300083E0089580E0089581E0089582E00895C4
:1002400084E986BF06B604FCFDCF08951F93CF93C3
:10025000DF93C82FD4EA14E8D6BF06B607FEFDCF59
:1002600081B1887F8830C1F7C3B916BF06B607FED3
:10027000FDCF81B1887F883111F0E2DFEDCFDF91D2
:10028000CF911F91089583B984E886BF06B607FE13
:10029000FDCF81B1887F883221F0803321F082E068
:1002A000089580E0089581E0089584EC86BF06B645
:1002B00007FEFDCF83B1089584E886BF06B607FE2A
:1002C000FDCF83B108958BE792E90197F1F700C064
:1002D000000080EDBBDF89E1D6DF87E0D4DFB0DF4F
:1002E00080EDB4DF8BE6CFDF81E0CDDFA9DF80EDED
:1002F000ADDF8AE1C8DF80E0C6DFA2DF80EDA6DFE8
:100300008BE1C1DF88E1BFDF9BDF80ED9FDF88E30A
:10031000BADF81E0B8DF94CF80ED98DF8BE3B3DF05
:1003200081ED71CFCF93F8DFC0DFC82FBEDF6C2F18
:10033000CC0F770B762F6627082E000C990B682BB5
:10034000792B072E000C880B990BCFD620E030E0DC
:1003500040E858E356D760930301709304018093FB
:10036000050190930601A1DFC82F9FDF6C2FCC0FF2
:10037000770B762F6627082E000C990B682B792BAC
:10038000072E000C880B990BB0D620E030E040E837
:1003900058E337D76093B5007093B6008093B700E9
:1003A0009093B80082DFC82F80DF6C2FCC0F770BC3
:1003B000762F6627082E000C990B682B792B072EB9
:1003C000000C880B990B91D620E030E040E858E310
:1003D00018D760937D0070937E0080937F00909388
:1003E000800063DFC82F61DF2C2FCC0F330B322F3F
:1003F0002227082E000C990B822B932B64E571E0C9
:100400000FD5072E000C880B990B6FD628EB3EE119
:1004100042E152E46BD56093AD007093AE008093DF
:10042000AF009093B00041DFC82F3FDF6C2FCC0F9F
:10043000770B762F6627082E000C990B682B792BEB
:10044000072E000C880B990B50D623E333E343E8C7
:1004500051E4B0D56093A9007093AA008093AB00DB
:100460009093AC0022DFC82F20DF6C2FCC0F770BCE
:10047000762F6627082E000C990B682B792B072EF8
:10048000000C880B990B31D623E333E343E851E4A6
:1004900091D560934E0170934F01809350019093DA
:1004A000510103DFC82F08DF6C2FCC0F770B762F9D
:1004B0006627082E000C990B682B792B072E000C51
:1004C000880B990B12D623E333E343E851E472D54A
:1004D0006093FE007093FF008093000190930101F0
:1004E000CF91AECE8BE792E90197F1F700C0000003
:1004F00082EDACDE89E1C7DE87E0C5DEA1DE82EDFC
:10050000A5DE8BE6C0DE81E0BEDE9ADE82ED9EDEF9
:100510008AE1B9DE80E0B7DE93DE82ED97DE8BE123
:10052000B2DE88E1B0DE8CDE82ED90DE88E3ABDE09
:1005300081E0A9DE85CE82ED89DE8BE3A4DE83ED4A
:1005400062CECF93F8DFB1DEC82FAFDE6C2FCC0FB9
:10055000770B762F6627082E000C990B682B792BCA
:10056000072E000C880B990BC0D520E030E040E846
:1005700058E347D6609374017093750180937601B8
:100580009093770192DEC82F90DE6C2FCC0F770B03
:10059000762F6627082E000C990B682B792B072ED7
:1005A000000C880B990BA1D520E030E040E858E31F
:1005B00028D6609352017093530180935401909315
:1005C000550173DEC82F71DE6C2FCC0F770B762FA1
:1005D0006627082E000C990B682B792B072E000C30
:1005E000880B990B82D520E030E040E858E309D62B
:1005F0006093DB007093DC008093DD009093DE005D
:1006000054DEC82F52DE2C2FCC0F330B322F222773
:10061000082E000C990B822B932B64E571E000D41B
:10062000072E000C880B990B60D528EB3EE142E1C8
:1006300052E45CD46093D7007093D8008093D900C3
:100640009093DA0032DEC82F30DE6C2FCC0F770BA0
:10065000762F6627082E000C990B682B792B072E16
:10066000000C880B990B41D523E333E343E851E4B5
:10067000A1D46093B1007093B2008093B3009093C3
:10068000B40013DEC82F11DE6C2FCC0F770B762F42
:100690006627082E000C990B682B792B072E000C6F
:1006A000880B990B22D523E333E343E851E482D44A
:1006B00060939E0170939F018093A0019093A1018C
:1006C000F4DDC82FF9DD6C2FCC0F770B762F662762
:1006D000082E000C990B682B792B072E000C880B29
:1006E000990B03D523E333E343E851E463D46093E8
:1006F0009601709397018093980190939901CF91FF
:100700009FCDF8948FB580688FBD8FB580628FBD07
:100710008FB582608FBD8EB588618EBD8EB58160CC
:100720008EBD1BBC1ABC19BC18BC8FE190E097BDF4
:1007300086BD7894089586B1836086B90895F8944B
:1007400036983798E4B1F0E0F0930801E0930701A0
:1007500095B1F92BF0939C01E0939B01440F242B5E
:10076000660F660F622B880F880F880F862B87B95C
:10077000379A369A349BFECF84B190E0909308016B
:100780008093070145B128E030E002C0220F331FFB
:100790004A95E2F7822B932B90939C0180939B01C7
:1007A00084B195B14AE069E071E0F6D5789489E0CA
:1007B00091E00895B499FECFF89428E180E090E0AC
:1007C000DC01C59A0000880F991FAA1FBB1FC5989E
:1007D0000000B49B03C00196A11DB11D215089F7F3
:1007E00030917C00231728F4C59A0000C5982F5F2C
:1007F000F7CF7894BC01CD0180580895CF92DF9255
:10080000EF92FF92CF93DF93D82FC0E0C12CD12C71
:100810007601CD1739F0CEDFC60ED71EE81EF91EC1
:10082000CF5FF7CF2C2F30E040E050E0C701B6019A
:100830000AD3CA01B901DF91CF91FF90EF90DF9009
:10084000CF900895CF92DF92EF92FF92B3DF4DD415
:100850006B017C016091740070917500809176004D
:100860009091770042D49B01AC01C701B6013DD302
:10087000FF90EF90DF90CF900895E4DF2091780013
:100880003091790040917A0050917B0093D31CC540
:100890008130910511F481E008C08330910511F495
:1008A00083E003C00297B9F782E080937C00C5988B
:1008B00081CF80917C0090E00895609378007093E0
:1008C000790080937A0090937B000895609178007E
:1008D0007091790080917A0090917B0008956093E7
:1008E000740070937500809376009093770008955C
:1008F00060917400709175008091760090917700FE
:10090000089558DFF2D3BED36093740070937500DE
:1009100080937600909377000895C598C59A0895BE
:10092000C598089585E06ADF609374007093750040
:1009300080937600909377000895CF92DF92EF92A4
:10094000FF920F931F936B017C0185E057DF0091AD
:100950007400109175002091760030917700601B33
:10096000710B820B930BC1D3A701960123D3609324
:1009700078007093790080937A0090937B001F91A8
:100980000F91FF90EF90DF90CF9008958F929F92FC
:10099000AF92BF92CF92DF92EF92FF920F931F938D
:1009A0004A015B0168017901BD9AC598BC9890E045
:1009B0006FDF8092780090927900A0927A00B092D6
:1009C0007B00C0927400D0927500E0927600F092A5
:1009D00077001F910F91FF90EF90DF90CF90BF9025
:1009E000AF909F908F9008950F931F93CF93DF93B5
:1009F000C82F84EBEBDB8C2F46DC85EB04DC55DC6D
:100A0000082F880F110B51DCC82F880FDD0BDC2F4E
:100A1000CC27C02BD12B50DC13DCCE01DF91CF9142
:100A20001F910F91089587E0DFDFBC0166277F7774
:100A3000680F711D072E000C880B990B56D32AE006
:100A400037ED43EA5CE3DDD32AE037ED43E25CE3D4
:100A50004CD223E333E948E853E447D260932B01B7
:100A600070932C0180932D0190932E01089586E0C0
:100A7000BBDFBC0166277F77680F711D072E000C56
:100A8000880B990B32D32AE037ED43EA5CE3B9D304
:100A90002AE037ED43E25CE328D223E333E948E878
:100AA00053E423D260932B0170932C0180932D018A
:100AB00090932E0108958BE792E90197F1F700C01A
:100AC00000008EEAC3DB88E0DEDB80EBDCDBB8DB3A
:100AD0008EEABCDB89E0D7DB82E0D5DBB1DB8EEAD6
:100AE000B5DB8AE0D0DB88E1CEDBAADB8EEAAEDBC9
:100AF0008CE0C9DB84E0C7DBA3CB8EEAA7DB84E014
:100B0000C2DB8FE3C0DB9CDB8EEAA0DB85E0BBDBD6
:100B100080E0B9DB95DB8EEA99DB86E0B4DB80E030
:100B2000B2DB8EDB8EEA92DB87E0ADDB80E0ABDB15
:100B300087DB8EEA8BDB87E0A6DB8FEA64CBCF9383
:100B4000DCDFB3DBC82FB8DB4C2FCC0F550B660BAB
:100B5000770B9FE0440F551F661F771F9A95D1F7BB
:100B6000082E000C990BAA0BBB0B842B952BA62BE4
:100B7000B72B8093270190932801A0932901B0936C
:100B80002A01CF915DCBBA9AB99ABD9AA39AAB9A32
:100B900008958FE190E09BBD8ABD99BD88BD089501
:100BA0001BBC1ABC08958FE190E099BD88BD0895E3
:100BB00019BC18BC089561DE6AD26093DF006093AF
:100BC0009D015BDE64D260934D018091DF00861B46
:100BD00080939A010895D7DFF6DA8CE090E0BCDAD2
:100BE000AADD8FDD00E91CE426E930E040E050E4B6
:100BF0006CE176E481E0CADE60E6E62E60E0F62E87
:100C00007CE4872E912CA12CB12CEAE94E2EE9E947
:100C10005E2EE1E16E2EE2E47E2EFFE62F2EF0E066
:100C20003F2EAFE2CA2EA1E0DA2EA5DA80930201B0
:100C30008D3609F0BFC02FE382E49FE02150804051
:100C40009040E1F700C0000010929D01A2DF2FEF5D
:100C500084E39CE0215080409040E1F700C0000018
:100C600080919D01803A28F408DE11D260939D01A5
:100C7000F7CF1BBC1ABCC0E080919D01833360F1AB
:100C80009ADF40919A014130A1F42C2F30E0F90114
:100C9000E754FF4F5091DF0080914D0190E0850FA8
:100CA000911D959587958083F901EF57FF4F4083FC
:100CB000CF5FE3DDECD160939D018091DF0090E098
:100CC000019720919D0130E02817390794F78FE1B3
:100CD00090E099BD88BDD0CF19BC18BC0FE910E0D9
:100CE00020E043E060E070E08AEF92E436D3E80170
:100CF000DF930F93FF92EF9286E591E09F938F939E
:100D00006ED320E043E060E070E084E992E425D314
:100D1000DF930F93FF92EF9280EE90E09F938F937B
:100D20005ED38092270190922801A0922901B0926F
:100D30002A0140922B0150922C0160922D01709259
:100D40002E0120E043E060E070E088E992E405D302
:100D5000DF930F9388E690E09F938F9388E791E06D
:100D60009F938F933CD360912B0170912C018091C4
:100D70002D0190912E0122E042E0EFD2DF930F93FC
:100D80003F922F92DF92CF922AD386E591E0F8D955
:100D900080EE90E0F5D988E791E0F2D98FE291E01A
:100DA000EFD98DB79EB748960FB6F8949EBF0FBE89
:100DB0008DBF3BCF803709F038CFEBDE9FEF24E3C8
:100DC0008CE0915020408040E1F700C0000055DDEC
:100DD0005ED160939D0180E6E82E80E0F82EC6E5A6
:100DE000D1E04BDD54D160939D0170E080E090E054
:100DF0007AD10FE910E020E043E0AFD2C8019F9321
:100E00000F93FF92EF92DF93CF93E9D286E591E0C3
:100E1000B7D90F900F900F900F900F900F90E1CFD8
:100E200097FB072E16F4009406D077FD08D027D044
:100E300007FC05D03EF4909581959F4F08957095DD
:100E400061957F4F0895052E97FB16F400940FD0FF
:100E500057FD05D028D007FC02D046F408C05095B5
:100E60004095309521953F4F4F4F5F4F0895909596
:100E70008095709561957F4F8F4F9F4F0895AA1B66
:100E8000BB1B51E107C0AA1FBB1FA617B70710F075
:100E9000A61BB70B881F991F5A95A9F780959095A7
:100EA000BC01CD010895A1E21A2EAA1BBB1BFD01B6
:100EB0000DC0AA1FBB1FEE1FFF1FA217B307E40739
:100EC000F50720F0A21BB30BE40BF50B661F771F91
:100ED000881F991F1A9469F7609570958095909571
:100EE0009B01AC01BD01CF0108955058BB27AA2733
:100EF0000ED04DC13ED130F043D120F031F49F3FB0
:100F000011F41EF433C10EF4E095E7FB29C1E92F7B
:100F10004FD180F3BA17620773078407950718F05B
:100F200071F49EF567C10EF4E0950B2EBA2FA02D3B
:100F30000B01B90190010C01CA01A0011124FF2786
:100F4000591B99F0593F50F4503E68F11A16F04081
:100F5000A22F232F342F4427585FF3CF4695379580
:100F60002795A795F0405395C9F77EF41F16BA0B45
:100F7000620B730B840BBAF09150A1F0FF0FBB1FF3
:100F8000661F771F881FC2F70EC0BA0F621F731F3C
:100F9000841F48F4879577956795B795F7959E3F99
:100FA00008F0B3CF9395880F08F09927EE0F979527
:100FB000879508950CD0EBC0E3D040F0DAD030F044
:100FC00021F45F3F19F0CCC0511115C1CFC0F0D052
:100FD00098F39923C9F35523B1F3951B550BBB2700
:100FE000AA2762177307840738F09F5F5F4F220FAD
:100FF000331F441FAA1FA9F333D00E2E3AF0E0E8A6
:1010000030D091505040E695001CCAF729D0FE2FF1
:1010100027D0660F771F881FBB1F26173707480783
:10102000AB07B0E809F0BB0B802DBF01FF27935839
:101030005F4F2AF09E3F510568F092C0DCC05F3FD1
:10104000ECF3983EDCF3869577956795B795F79521
:101050009F5FC9F7880F911D9695879597F9089519
:10106000E1E0660F771F881FBB1F621773078407B5
:10107000BA0720F0621B730B840BBA0BEE1F88F7C4
:10108000E095089504D06894B111B5C0089598D042
:1010900088F09F5790F0B92F9927B751A0F0D1F061
:1010A000660F771F881F991F1AF0BA95C9F712C0EB
:1010B000B13081F09FD0B1E008959CC0672F782FA8
:1010C0008827B85F39F0B93FCCF386957795679557
:1010D000B395D9F73EF490958095709561957F4FC3
:1010E0008F4F9F4F0895E89409C097FB3EF4909569
:1010F0008095709561957F4F8F4F9F4F9923A9F0F1
:10110000F92F96E9BB279395F6958795779567957F
:10111000B795F111F8CFFAF4BB0F11F460FF1BC0C3
:101120006F5F7F4F8F4F9F4F16C0882311F096E956
:1011300011C0772321F09EE8872F762F05C0662304
:1011400071F096E8862F70E060E02AF09A95660FBD
:10115000771F881FDAF7880F9695879597F9089576
:1011600097F99F6780E870E060E008959FEF80EC5A
:10117000089500240A9416161706180609060895FD
:1011800000240A9412161306140605060895092E63
:101190000394000C11F4882352F0BB0F40F4BF2BD2
:1011A00011F460FF04C06F5F7F4F8F4F9F4F089512
:1011B00057FD9058440F551F59F05F3F71F0479508
:1011C000880F97FB991F61F09F3F79F087950895ED
:1011D000121613061406551FF2CF4695F1DF08C00C
:1011E000161617061806991FF1CF86957105610529
:1011F00008940895E894BB2766277727CB0197F9D1
:1012000008950BD0C4CFB5DF28F0BADF18F09523CE
:1012100009F0A6CFABCF1124EECFCADFA0F3959F84
:10122000D1F3950F50E0551F629FF001729FBB27CD
:10123000F00DB11D639FAA27F00DB11DAA1F649F79
:101240006627B00DA11D661F829F2227B00DA11D2C
:10125000621F739FB00DA11D621F839FA00D611DB2
:10126000221F749F3327A00D611D231F849F600DD3
:10127000211D822F762F6A2F11249F5750408AF00C
:10128000E1F088234AF0EE0FFF1FBB1F661F771F98
:10129000881F91505040A9F79E3F510570F060CFD4
:1012A000AACF5F3FECF3983EDCF386957795679580
:1012B000B795F795E7959F5FC1F7FE2B880F911DB6
:1012C0009695879597F908957BDFE0F09E37D8F0E3
:1012D0009639B8F49E3848F4672F782F8827985F9E
:1012E000F9CF86957795679593959539D0F3B62F75
:1012F000B1706B0F711D811D20F4879577956795EF
:10130000939502C01CC077CF882371F4772321F016
:101310009850872B762F07C0662311F499270DC0AC
:101320009051862B70E060E02AF09A95660F771F47
:10133000881FDAF7880F9695879597F908959F3F4C
:1013400031F0915020F4879577956795B795880F80
:10135000911D9695879597F90895EF920F931F9396
:10136000CF93DF93E80147FD02C034E001C034E1D0
:10137000042E000C550B57FF03C0519541955109A0
:10138000E32E022F242FAE011BD2CE01DF91CF918D
:101390001F910F91EF900895BB274A3031F49923A4
:1013A00022F4BDE2909581959F4F01C0BB27FB01C0
:1013B0005527AA27880F991FAA1FA41710F0A41B4E
:1013C00083955051B9F7A05DAA3308F0A95DA193A8
:1013D000009779F7B111B1931192CB0136C4AEE009
:1013E000B0E0E4EFF9E0E9C40D891E8986E08C8362
:1013F0001A8309838FEF9FE79E838D83AE01475E3B
:101400005F4F6F89788DCE01019608D0EF81F88506
:10141000E00FF11F10822E96E4E0EBC4ABE0B0E0E9
:10142000E3E1FAE0BCC46C017B018A01FC01178294
:101430001682838181FFBFC1CE0101963C01F60176
:101440009381F70193FD859193FF81917F0188231B
:1014500009F4ADC1853239F493FD859193FF8191F3
:101460007F01853221F4B60190E0FFD3E8CF912CC3
:10147000212C312CFFE1F315D8F08B3279F038F4C0
:10148000803279F08332A1F4232D20611DC08D328A
:1014900061F0803369F4232D216016C0832D8260B2
:1014A000382EE32DE4603E2E2AC0F32DF8601DC0D7
:1014B00037FC2DC020ED280F2A3040F08E32B9F4D1
:1014C00036FC75C1232D2064322E19C036FE06C0AD
:1014D0008AE0989E200D1124922E11C0EAE02E9EE3
:1014E000200D1124222EF32DF0623F2E08C08C36E1
:1014F00021F4832D8068382E02C0883641F4F7012C
:1015000093FD859193FF81917F018111B3CF982F36
:101510009F7D9554933028F40C5F1F4F9FE3998370
:101520000DC0833631F0833771F0833509F055C033
:1015300020C0F801808189830E5F1F4F8824839427
:10154000912C530112C02801F2E04F0E511CF801FA
:10155000A080B18036FE03C0692D70E002C06FEF3D
:101560007FEFC50167D34C018201F32DFF773F2E3A
:1015700015C0280122E0420E511CF801A080B18064
:1015800036FE03C0692D70E002C06FEF7FEFC5012A
:1015900046D34C01F32DF0683F2E820133FC19C075
:1015A000822D90E088169906A0F4B60180E290E0C2
:1015B0005CD32A94F5CFF50137FC859137FE8191F4
:1015C0005F01B60190E051D321102A9421E0821AE4
:1015D00091088114910479F7E1C0843611F08936BD
:1015E00039F5F80137FE07C06081718182819381EE
:1015F0000C5F1F4F08C060817181072E000C880BA3
:10160000990B0E5F1F4FF32DFF763F2E97FF09C0FA
:1016100090958095709561957F4F8F4F9F4FF068A3
:101620003F2E2AE030E0A3015CD3882E861844C008
:10163000853731F4232D2F7EB22E2AE030E025C0ED
:10164000932D997FB92E8F36C1F018F4883579F033
:10165000AEC0803719F0883721F0A9C0E92FE061CA
:10166000BE2EB4FE0DC0FB2DF460BF2E09C034FEAB
:101670000AC0292F2660B22E06C028E030E005C03F
:1016800020E130E002C020E132E0F801B7FE07C0FF
:1016900060817181828193810C5F1F4F06C06081E0
:1016A000718180E090E00E5F1F4FA3011AD3882E56
:1016B0008618FB2DFF773F2E36FE0DC0232D2E7F83
:1016C000A22E891458F434FE0BC032FC09C0832DBD
:1016D0008E7EA82E05C0B82CA32C03C0B82C01C048
:1016E000B92CA4FE0FC0FE01E80DF11D80818033EE
:1016F00021F49A2D997EA92E09C0A2FE06C0B394AA
:10170000B39404C08A2D867809F0B394A3FC10C06A
:10171000A0FE06C0B21480F4280C922C9B180DC0B9
:10172000B21458F4B60180E290E09FD2B394F8CF9F
:10173000B21418F42B1802C0982C212CA4FE0FC050
:10174000B60180E390E091D2A2FE16C0A1FC03C0D6
:1017500088E790E002C088E590E0B6010CC08A2DD1
:10176000867851F0A1FE02C08BE201C080E2A7FCA6
:101770008DE2B60190E079D2891430F4B60180E3AD
:1017800090E073D29A94F8CF8A94F301E80DF11D9A
:101790008081B60190E069D28110F6CF222009F451
:1017A0004ECEB60180E290E060D22A94F7CFF601E7
:1017B0008681978102C08FEF9FEF2B96E2E10BC3EA
:1017C000A9E0B0E0E5EEFBE0F0C26A01122FB02E16
:1017D0002BE3201720F0FF24F394F00E02C02CE33B
:1017E000F22E0F2D27E0AE014F5F5F4F40D1BC01BD
:1017F0004981842F8970813031F0E1FC06C0E0FE20
:1018000006C090E205C09DE203C09BE201C090E0EB
:101810005E2D507143FF3CC0911102C083E001C0B6
:1018200084E0811718F4212F281B01C020E05111FA
:101830000BC0F601822F30E2882319F031938150DA
:10184000FBCFC20ED11C20E0992329F0D6019C9336
:10185000F60131966F01C6010396E2FE0AC03EE42E
:10186000D6013C9341E411964C93119712963C9308
:1018700006C03EE6F601308341E641833283FC0137
:10188000322F40E2332309F442C041933150FACF62
:1018900042FF44C0911102C083E001C084E081177F
:1018A00018F4212F281B01C020E051110BC0F601B4
:1018B000822F30E2882319F031938150FBCFC20E82
:1018C000D11C20E0992329F0D6019C93F601319692
:1018D0006F01C6010396E2FE0BC039E4D6013C93CA
:1018E0003EE411963C93119736E412963C9307C060
:1018F00039E6F60130833EE6318336E63283FC0179
:10190000322F40E2332319F041933150FBCFFC01D9
:10191000E20FF11D10828EEF9FEFA6C021E030E0B4
:10192000911102C020E030E0161617061CF4FB01EE
:10193000319602C0E1E0F0E02E0F3F1FBB2021F006
:10194000EB2DF0E0319602C0E0E0F0E02E0F3F1FFB
:10195000E12FF0E02E173F071CF4121B212F01C0CE
:1019600020E08E2D887159F4F601822F30E2882311
:1019700019F031938150FBCFC20ED11C20E0992386
:1019800029F0D6019C93F60131966F0151110BC0DD
:10199000F601822F90E3882319F091938150FBCFB9
:1019A000C20ED11C20E00F2D060F9A81342F30710A
:1019B00044FF03C0913309F40150101624F4093098
:1019C00018F008E001C001E0AB0177FF02C040E081
:1019D00050E0FB01E41BF50BA1E0B0E0AC0FBD1F34
:1019E000EA0FFB1F8EE2A82E4B01801A91080B2DE7
:1019F00010E01195019511094F3FBFEF5B0721F4EE
:101A0000D601AC9211966D01641775072CF08416FF
:101A1000950614F4818101C080E34150510931964B
:101A2000D60111967D014017510724F0D6018C9301
:101A30006701E2CF6417750739F4963320F49533C4
:101A400019F4311101C081E3F6018083F701822F7F
:101A500090E2882319F091938150FBCFF701E20FB8
:101A6000F11D108280E090E02996ECE0BAC12830A8
:101A700008F027E03327DA01990F311D87FD9160C7
:101A800000966105710539F432602E5F3D9330E3B5
:101A90002A95E1F708959F3F30F080387105610580
:101AA00009F03C5F3C5F3D93913008F08068911DE8
:101AB000DF93CF931F930F93FF92EF92192F987F8D
:101AC0009695E92F96959695E90FFF27E058FF4FD9
:101AD00099273327EE24FF24A701E70105900894F6
:101AE000079428F4360FE71EF81E491F511D660F94
:101AF000771F881F991F0694A1F70590079428F473
:101B0000E70EF81E491F561FC11D770F881F991F2A
:101B1000661F0694A1F70590079428F4F80E491F54
:101B2000561FC71FD11D880F991F661F771F069468
:101B3000A1F70590079420F4490F561FC71FD81F1F
:101B4000990F661F771F881F0694A9F78491109537
:101B5000177041F0D695C79557954795F794E79438
:101B60001A95C1F7E6E2F0E0689415901591359169
:101B70006591959105907FE27395E118F10A430B09
:101B8000560BC90BD009C0F7E10CF11E431F561FBD
:101B9000C91FD01D7EF4703311F48A95E6CFE89406
:101BA000015030F0080F0AF40027021708F4202F24
:101BB0002395022F7A3328F079E37D932A95E9F76C
:101BC00010C07D932A9589F6069497956795379569
:101BD00017951794E118F10A430B560BC90BD0095E
:101BE00098F023957E9173957A3308F070E37C9397
:101BF0002013B8F77E9170617D9330F0839571E387
:101C00007D9370E32A95E1F71124EF90FF900F91F7
:101C10001F91CF91DF91992787FD90950895FC0141
:101C20000590615070400110D8F7809590958E0F07
:101C30009F1F0895FC016150704001900110D8F77A
:101C4000809590958E0F9F1F0895DC01FC01672FF2
:101C500071917723E1F7329704C07C916D93708383
:101C60006291AE17BF07C8F308950F931F93CF93E8
:101C7000DF93FB01238121FD03C08FEF9FEF2CC079
:101C800022FF16C0468157812481358142175307B0
:101C900044F4A081B1819D012F5F3F4F31832083A8
:101CA0008C93268137812F5F3F4F3783268314C063
:101CB0008B01EC01FB010084F185E02D0995892B56
:101CC000E1F6D80116968D919C911797019617967B
:101CD0009C938E931697CE01DF91CF911F910F9118
:101CE0000895FA01AA27283051F1203181F1E894B2
:101CF0006F936E7F6E5F7F4F8F4F9F4FAF4FB1E0FF
:101D00003ED0B4E03CD0670F781F891F9A1FA11DF9
:101D1000680F791F8A1F911DA11D6A0F711D811DFA
:101D2000911DA11D20D009F468943F912AE0269FBF
:101D300011243019305D3193DEF6CF010895462F1E
:101D40004770405D4193B3E00FD0C9F7F6CF462FFF
:101D50004F70405D4A3318F0495D31FD4052419368
:101D600002D0A9F7EACFB4E0A69597958795779525
:101D70006795BA95C9F700976105710508959B01AC
:101D8000AC010A2E06945795479537952795BA9535
:101D9000C9F7620F731F841F951FA01D08952F920E
:101DA0003F924F925F926F927F928F929F92AF92EB
:101DB000BF92CF92DF92EF92FF920F931F93CF9338
:101DC000DF93CDB7DEB7CA1BDB0B0FB6F894DEBFCF
:101DD0000FBECDBF09942A88398848885F846E84F5
:101DE0007D848C849B84AA84B984C884DF80EE803F
:101DF000FD800C811B81AA81B981CE0FD11D0FB648
:101E0000F894DEBF0FBECDBFED010895F894FFCF6B
:101E10002573206D6D48670025732070706D002557
:041E200073204300E8
:00000001FF
